:020000040000FA
:10000000C8670020190500002105000077050000E1
:10001000250500002705000029050000000000005C
:100020000000000000000000000000002B050000A0
:100030002D050000000000002F0500003105000024
:10004000330500009505000021090000330500007C
:1000500033050000330500003305000033050000C0
:1000600039080000CD080000ED0800004906000036
:1000700033050000330500003305000033050000A0
:100080003305000033050000330500003305000090
:100090003305000033050000330500003305000080
:1000A0003305000033050000330500003305000070
:1000B00033050000330500000000000000000000D0
:1000C0003305000033050000330500003305000050
:1000D0003305000033050000330500000000000078
:1000E0000000000000000000000000000000000010
:1000F0000000000000000000000000000000000000
:1001000000000000000000000000000000000000EF
:1001100000000000000000000000000000000000DF
:1001200000000000000000000000000000000000CF
:1001300000000000000000000000000000000000BF
:1001400000000000000000000000000000000000AF
:10015000000000000000000000000000000000009F
:10016000000000000000000000000000000000008F
:10017000000000000000000000000000000000007F
:10018000000000000000000000000000000000006F
:10019000000000000000000000000000000000005F
:1001A000000000000000000000000000000000004F
:1001B000000000000000000000000000000000003F
:1001C000000000000000000000000000000000002F
:1001D000000000000000000000000000000000001F
:1001E000000000000000000000000000000000000F
:1001F00000000000000000000000000000000000FF
:1002000000F002F800F05AF80AA090E8000C8244CE
:100210008344AAF10107DA4501D100F04FF8AFF2AB
:10022000090EBAE80F0013F0010F18BFFB1A43F0D4
:100230000103184798350000B83500000A444FF014
:10024000000C10F8013B13F0070408BF10F8014B35
:100250001D1108BF10F8015B641E05D010F8016B7A
:10026000641E01F8016BF9D113F0080F1EBF10F8DE
:10027000014BAD1C0C1B09D16D1E58BF01F801CB01
:10028000FAD505E014F8016B01F8016B6D1EF9D584
:100290009142D6D370470000002300240025002699
:1002A000103A28BF78C1FBD8520728BF30C148BFD9
:1002B0000B6070471FB51FBD10B510BD00F001F9F0
:1002C0001146FFF7F7FF01F0BBFF00F01FF903B481
:1002D000FFF7F2FF03BC00F047F940EA010310B555
:1002E0009B070FD1042A0DD310C808C9121F9C42C6
:1002F000F8D020BA19BA884201D9012010BD4FF0B8
:10030000FF3010BD1AB1D30703D0521C07E0002004
:1003100010BD10F8013B11F8014B1B1B07D110F861
:10032000013B11F8014B1B1B01D1921EF1D1184664
:1003300010BD032A40F2308010F0030C00F015804D
:1003400011F8013BBCF1020F624498BF11F801CBD8
:1003500000F8013B38BF11F8013BA2F1040298BF3D
:1003600000F801CB38BF00F8013B11F0030300F0A7
:100370005480083AC0F0088051F8043B083A51F81C
:1003800004CBA0E80810F5E7121D5CBF51F8043B50
:1003900040F8043BAFF30080D20724BF11F8013BC3
:1003A00011F801CB48BF11F8012B24BF00F8013B25
:1003B00000F801CB48BF00F8012B704702F0FF03A3
:1003C00043EA032242EA024200F05BB84FF0000227
:1003D00000B5134694469646203922BFA0E80C503B
:1003E000A0E80C50B1F12001BFF4F7AF090728BF16
:1003F000A0E80C5048BF0CC05DF804EB890028BF92
:1004000040F8042B08BF704748BF20F8022B11F0BA
:10041000804F18BF00F8012B704710B5203AC0F08C
:100420000B80B1E81850203AA0E81850B1E81850F5
:10043000A0E81850BFF4F5AF5FEA027C24BFB1E832
:100440001850A0E8185044BF18C918C0BDE81040A3
:100450005FEA827C24BF51F8043B40F8043B08BFAC
:100460007047D20728BF31F8023B48BF11F8012B73
:1004700028BF20F8023B48BF00F8012B70474FF01F
:1004800000020429C0F0128010F0030C3FF4A0AF6A
:10049000CCF1040CBCF1020F18BF00F8012BA8BF6F
:1004A00020F8022BA1EB0C01FFF792BF5FEAC17CA1
:1004B00024BF00F8012B00F8012B48BF00F8012BE6
:1004C0007047754600F048F8AE4605006946534649
:1004D00020F00700854618B020B500F02BF8BDE8E5
:1004E00020404FF000064FF000074FF000084FF09B
:1004F000000B21F00701AC46ACE8C009ACE8C0092C
:10050000ACE8C009ACE8C0098D4670470446AFF3BB
:1005100000802046FFF7DBFE094880470948004776
:10052000FEE7FEE7FEE7FEE7FEE7FEE7FEE7FEE7A3
:10053000FEE7FEE704480549054A064B7047000000
:100540009106000001020000C8270020C8670020B3
:10055000C8470020C847002000487047682700208F
:10056000704770477047000001491820ABBEFEE796
:1005700026000200704700E000BFFDE700F01F0208
:10058000012191404209920002F1E022C2F80011DB
:100590007047000025480068A8B12548006800F0B1
:1005A000020080B100202149086000BF01202149DC
:1005B000486000042049086001201E49C86000BF4F
:1005C0001E490968087319480830006858B118486E
:1005D000006800F0080030B10020144908310860BC
:1005E00001201749886011481430006860B1104834
:1005F000006800F0400038B100200C491431086058
:1006000001201049C86088600848001F006860B178
:100610000748006800F0010038B100200349091FB5
:10062000086001200749C1F8080370470411004021
:100630000413004000A0004008A300404C0000202C
:1006400000B000400010004010B50A48006880B1BA
:100650000948006800F4003058B1002105480160E5
:10066000012006494860886002F0E2FD012003494C
:10067000086010BD44B1004004B3004000B0004029
:1006800001480249086070470090D0039C01002097
:1006900010B500F075FC28B15B480088C0F3042059
:1006A0005A49086000F0C0FC10B1594859494867E0
:1006B00000F0D2FC30B15448E0380068C0F342305A
:1006C0005549086000F0F2FC28B15448006820F059
:1006D00080705249086000F001FD48B10020504987
:1006E00008604FF08041C1F810014B49091F0860B4
:1006F00000F01EFD18B1032047496431086000F086
:100700002FFD68B10520474908600120454978312F
:10071000086000204349083108603F20091F086035
:1007200000F036FD002855D03748E03000683E49DB
:1007300008603548E4300068091D08603248E83038
:100740000068091D08603048EC300068091D086029
:100750002D48F0300068091D08602B48F43000680F
:10076000091D08602848F83000682F4920310860CA
:100770002548FC300068091D08602C480068091DE8
:1007800008602A48001D0068091D086027480830D5
:100790000068091D086025480C300068091D0860C4
:1007A0002248103000682049403108601F4814304A
:1007B0000068091D08601D4818300068091D0860A0
:1007C0001A481C300068091D08601848203000686D
:1007D000091D086000F0AAFB30B10B48CC38006856
:1007E00000F04F001249086000F0F4FB40B11148DE
:1007F000006800F0010018B16FF001000D490860B9
:10080000FFF73EFF10BD00002403001040350140FB
:100810000DF0ADBA00C007403C050040FCED00E023
:100820000C0100401056004020C500402404001078
:10083000E40E0040000400402048006880B12048D9
:10084000006800F4803058B100201E4909688872A1
:100850001C49096848721949086001201A49486012
:100860001648001D006880B11548006800F400308B
:1008700058B100201349096808730120114909681B
:10088000C87200210D48001D01600C480830006846
:1008900098B10B48006800F4802070B1002009492D
:1008A00009680873012007490968C87200210348D4
:1008B0000830016001200449C86070474081004051
:1008C0000483004068000020008000400548006864
:1008D00038B100210348016003480068401C024908
:1008E00008607047449100405400002008480068A8
:1008F00068B10848006800F4803040B10020064923
:10090000096808730249086001200449486070477B
:1009100040A1004004A300406800002000A0004067
:1009200010B52448006888B32348006800F004002C
:1009300060B300201F4908602048007870B9012288
:100940001F49204800F052FA1C49087008460078F8
:1009500020B91D480068401C1B4908601B480068FE
:10096000174908701A480068401C1949086001229C
:100970001349144800F03AFA10490870114800F081
:10098000CFF818B104200C49091D0860094814303B
:10099000006828B1002007491431086002F038FDD2
:1009A00004481C30006818B1002002491C3108605E
:1009B00010BD00000821004004230040D2000020A8
:1009C000D100002060060020CC0000201825004047
:1009D000C800002008B5684601F0AEF90422694657
:1009E000014802F0D9FE08BD02020020054909684D
:1009F000090A4170034A11684A1C024B1A600170CF
:100A0000704700008000002010B500F048F901494F
:100A1000887210BDF001002010B51248C078401D4A
:100A2000C4B211480068C0F307400E4908550E488B
:100A30000068C0F307210B4A601C11540A48006883
:100A4000C1B2A01C1154A11C501802F0D1F9054AE2
:100A5000611C501802F0CCF90249081902F0C8F9DB
:100A600010BD0000F00100200C14004070B50024FF
:100A700000F076FF05460A480068291A0948C07D3B
:100A80000A30082202FB101406498C73200AC8732E
:100A9000200C0874200E48740148056070BD0000E9
:100AA0007C000020F001002070B504460D46BE20F9
:100AB0002070EF2060700620A07001202071E57189
:100AC000601DFFF793FF092D02D10420E0701DE0A7
:100AD000052D02D10020E07018E0012D02D1002088
:100AE000E07013E0062D11D1E17D252901DD2521DE
:100AF00000E0E17D084600F10A01C8B2011DC8B25C
:100B0000C11CC8B2C11CC8B2E07000BF70BD0146B4
:100B10008868CA68904201D1012070470020FCE734
:100B200001468A68C868401C824207D088680A6803
:100B3000904205D1C8684A68904201D101207047AF
:100B40000020FCE710B5044604F15F0304F16F02D6
:100B50001D49601D00F0D5F9D4F88920C4F899200A
:100B6000D4F88D10C4F89D10D4F89120C4F8A120B9
:100B7000D4F89510C4F8A510D4F8A910C4F8B11091
:100B8000D4F8AD10C4F8B5100222104904F1870062
:100B9000FFF7A3FB70B908220C4904F17F00FFF7AF
:100BA0009CFB38B904F19902611D04F1250000F0A5
:100BB0009BF907E004F1990204F1150104F1250005
:100BC00000F092F910BD0000FA2500200A2600204E
:100BD000017809B9012100E000210170704700008F
:100BE00010B501460846CC1701EB5474C4F3C70294
:100BF000CC1701EB5474E410A1EBC404E3B2252933
:100C000003D0262901D0272901D1002010BD064894
:100C100000681130805C01249C40204008B1012014
:100C2000F4E70020F2E70000E400002010B50446DD
:100C300006480068007F30B1044801680D31204645
:100C400002F028F910BD02F0FFF8FBE7E4000020F5
:100C500010B504460348046000200349087002F000
:100C60008FF910BDE4000020E000002010B504461C
:100C700094F85610272001555720015D84F828105C
:100C80005820015D84F829105920015D84F82A104C
:100C90005A20015D84F82B1002F072F910BD70B576
:100CA00001F01AF90446022C01D125250FE01A2C77
:100CB00001D126250BE0502C01D1272507E01A2C65
:100CC00001D2022000E00320C0EB5400C5B2284648
:100CD00070BD000070B5FFF7E2FF0646304600F039
:100CE00051FE04460448C178601C90FBF1F201FB00
:100CF00012050148405D70BDDA00002070B5FFF7B5
:100D0000CEFF0646304600F03DFE04460648C07859
:100D10002044401E0449C97890FBF1F201FB120502
:100D20000148405D70BD0000DA0000200149026802
:100D30000A607047DA000020C91C4A7982750B7975
:100D4000C375CB7803768B7843764B7883760B78B4
:100D5000C376CA7B42738B7B83734B7BC3730B7BE2
:100D600003748B7C03734B7CC3720A7C8272CA7CD3
:100D700002700A7D4B7D42EA032242808A7DCB7D50
:100D800042EA032282800A7E4B7E42EA0322C2802C
:100D90008A7ECB7E42EA032202810A7F42744B7F25
:100DA00083748B7FC374CB7F037591F820304375B8
:100DB00091F82120C91E02F01F02427001224277E1
:100DC000827770470A7802704A8842808A888280D7
:100DD000CA88C2800A89028170474A7F0AB14A7F65
:100DE00042778A7F0AB18A7F827770472DE9F04780
:100DF00004460F4615464FF00008274800780028A3
:100E000047D1012024490870E068A168884201D2D6
:100E1000A06800E060688146E068284448450DD23B
:100E2000E0682A463946FFF784FAE0682844E06023
:100E30000020194908704FF0010826E0E068A16819
:100E4000884222D3A088E168401A86B2AE4201DA15
:100E5000304600E028460646A0682168401AA91BD3
:100E6000884211DDE3686168CA1AE0683946FFF715
:100E700060FAAA1BB9192068FFF75BFAA91B206862
:100E80000844E0604FF0010800BF002002490870EC
:100E900000BF4046BDE8F087D800002000B501F053
:100EA00011FB012801D0002000BD01F0BFFF0A287E
:100EB00018D2DFE800F0170507090B13150D0F1105
:100EC0000120F1E70220EFE70120EDE70220EBE748
:100ED0000320E9E70420E7E70520E5E70020E3E752
:100EE0000020E1E70020DFE770B506460C46154616
:100EF000204600F059FE05222946304600F018FE33
:100F000070BD2DE9FF4106460F4614461D46206878
:100F100002906068039028680090686801906A46B3
:100F200039463046FFF7E0FFBDE8FF8113480078FF
:100F3000062820D11148001D007800F00F00D0B91C
:100F40000E480830007800F0F000302801D1012070
:100F500070470A480830007800F0F000402801D1BE
:100F60000120F5E705480830007800F0F00050282F
:100F700001D10120ECE70020EAE70000E00F00F0DB
:100F800013480078062820D11148001D007800F091
:100F90000F00D0B90E480830007800F0F00030287B
:100FA00001D1012070470A480830007800F0F000B5
:100FB000402801D10120F5E705480830007800F00D
:100FC000F000502801D10120ECE70020EAE7000002
:100FD000E00F00F013480078062820D11148001DCA
:100FE000007800F00F00D0B90E480830007800F00B
:100FF000F000302801D1012070470A4808300078FD
:1010000000F0F000402801D10120F5E70548083044
:10101000007800F0F000502801D10120ECE700201A
:10102000EAE70000E00F00F00A48007806280ED139
:101030000848001D007800F00F0040B9054808304E
:10104000007800F0F000302801D101207047002026
:10105000FCE70000E00F00F013480078062820D1DC
:101060001148001D007800F00F00D0B90E4808307C
:10107000007800F0F000302801D1012070470A48C4
:101080000830007800F0F000402801D10120F5E799
:1010900005480830007800F0F000502801D1012008
:1010A000ECE70020EAE70000E00F00F00A480078D3
:1010B00006280ED10848001D007800F00F0040B946
:1010C00005480830007800F0F000302801D10120F8
:1010D00070470020FCE70000E00F00F013480078A4
:1010E000062820D11148001D007800F00F00D0B96B
:1010F0000E480830007800F0F000302801D10120BF
:1011000070470A480830007800F0F000402801D10C
:101110000120F5E705480830007800F0F00050287D
:1011200001D10120ECE70020EAE70000E00F00F029
:101130000A48007806280ED10848001D007800F003
:101140000F0040B905480830007800F0F000302862
:1011500001D1012070470020FCE70000E00F00F003
:101160000A48007806280ED10848001D007800F0D3
:101170000F0040B905480830007800F0F000302832
:1011800001D1012070470020FCE70000E00F00F0D3
:101190000A48007806280ED10848001D007800F0A3
:1011A0000F0040B905480830007800F0F0005028E2
:1011B00001D1012070470020FCE70000E00F00F0A3
:1011C00010B504460A201149087200204872062111
:1011D0000E48FFF769FC0D48407A0D49096809B1CE
:1011E000012100E000210843084948720846847242
:1011F00000200873487300F0E3FE0449C872FFF74B
:1012000035FCFFF7E7FBFFF707FC10BDF0010020FE
:1012100000140040024A1060024A1160704700004A
:10122000E8000020EC0000202DE9F0470746884642
:10123000154601F0E5FF4146384602F011F8002658
:1012400010207D49086000207C49C1F8000201207F
:1012500000F0E2FC00207A49087000F033FEDCE088
:101260007848006801F0E0FA00F08EFE90F80090F7
:10127000C9F340117348006880F8321002F000FA98
:1012800000BF01206D49C860D2206F4908604FF44B
:1012900000306E49086040106849C1F8040301201D
:1012A000086000BF674909688872002000F0C8FC28
:1012B000FFF7F5FC04462146062001F021FF01F06E
:1012C0007DFC07280AD100205E49096848735D4902
:1012D0000968887201205B490968087140205C49EF
:1012E000086079E001205B49087001215348C1641E
:1012F00055480C300668822E19D200BF08045649A2
:10130000086001205549C860C6F182005449086050
:1013100001205249086000BF524800680028FBD0F5
:1013200000205049086001204C49486000BF01205E
:101330004D49886000204049FC3908604A49C1F89D
:101340000C0100BF3C48FC38006820B93D480068EB
:10135000807A0028F6D13B480068807A00283BD08C
:1013600000BF3548F43800680028FAD001F002F9CF
:1013700000BF012031494860C8600004334908605B
:1013800000BF00203349087000F0FEFD047804F02F
:101390000F00052815D12E48F8300068012810D11B
:1013A000274908702749096848732648006890F85B
:1013B0003200C4F3401108402249096881F8320024
:1013C00005E004F00F00032801D101F081FB0021AA
:1013D0001D480C30016000BF1A480068807A002860
:1013E00080D11748007838B902F056F919480078CA
:1013F00090B101F089FA0FE01DB10020104908708A
:1014000001E000F05BFDFFF74AFC044621460620A0
:1014100001F076FE01F0BCFE00BF0A480068407B88
:1014200020B10748007800283FF41AAF4FF480300D
:1014300006490860BDE8F0870012004000800040C7
:1014400071000020740000204085004008830040A7
:10145000081300407000002008A3004000A00040D6
:1014600040A5004040A10040001000402DE9FC5F75
:1014700004464FF00009002601250020E081E072BB
:101480002070607000F01AFD012000F089FD208BB3
:10149000A17D084440F2E24100FB01FA00BF0120B7
:1014A000F349C86000BF00BF0846C0F848A5AAEBD2
:1014B0000A01F04801600021EF480160001D016051
:1014C0004FF4C020ED4908600120E949086000BFE1
:1014D000B7E14FF000080125012001F0E9F90020F3
:1014E000E74908600120E749C1F804030220E64902
:1014F0000860E089FFF79AFB834600F045FC002076
:10150000DF4910310860DE49091D0860DD49C1F876
:101510000C0101F027F918B13321085D00F068FAD9
:1015200002F0AEF83320015D002000F05BFC00F01B
:10153000C9FC00BFD248001D006820B9607B10B113
:10154000E07A0028F6D0CE48001D0068012821D19D
:1015500000BFC749C86000BF00BF0004CB49086096
:101560000120CB49C8603220CA4908600120C8491F
:10157000086000BFC84800680028FBD00020C649AA
:1015800008600120C249486000BF00BFB849C86078
:1015900000BF2073608B40F2E24100FB01F700BF07
:1015A000B448001D0760A7F5C370B2490860002168
:1015B000B1480160001D01604FF4C020AF490860D0
:1015C0000120AB49086000BF0020E07200BFAC48BA
:1015D0000C30006830B9607B20B1E07A10B9207B14
:1015E0000028F4D100F0C6FF207B002843D04FF044
:1015F0000009761C0220A449091F086000BF0120D1
:10160000A349C860DC20A34908604FF480309F499B
:10161000091F086001209E4908600020C1F84001B0
:1016200000BF01F09FF8019000F0FCF92946204628
:1016300000F02EFD8346E189584601F07FFDD4F885
:101640001801007800F00300032803D12946204642
:1016500000F04CFE207820B12946204601F027FFFB
:10166000607004F15C022946D4F8180101F0E0FE34
:1016700040EA080803E009F101001FFA80F977E069
:1016800085F0010515B13320005D01E03420005DD7
:10169000834600F013FC5946002000F0A3FB00F045
:1016A00011FC284601F004F900207549091D086065
:1016B0007449C1F80C0101F055F810B1584600F01A
:1016C00097F901206F49886000BF6D480C300068B1
:1016D00020B9E07A10B9207B0028F6D100F04AFF4B
:1016E000761CE07AF0BB207BE0B300BF01206849A4
:1016F000C860DC20674908604FF480306349091FE7
:1017000008600120624908600020C1F8400100BF64
:1017100001F028F8009000F085F92946204600F0F5
:10172000B7FC0190E189019801F008FD012000F06B
:1017300087FAD4F81801007800F00300032803D1D9
:101740002946204600F0D2FD04F15C022946D4F877
:10175000180101F06DFE40EA0808207830B12946F2
:10176000204600E003E001F0A2FE607000BF00BF71
:10177000207B002884D101F08FFF00F09FFBE089DF
:10178000401CE081204601F0DBFFB8F1000F03D0E0
:1017900004F15C00FFF7D6F901F010FA072803D135
:1017A000002060730120E072608B40F2E241484308
:1017B00000FB09F1E08B401C40F271225043B1EB79
:1017C000001F03DB002060730120E072207828B145
:1017D000607818B1002060730120E07200BFE07AE9
:1017E0000028FCD00020E072207A48B3218B40F220
:1017F000E24201FB02F001211D4A5160218B0029C8
:101800001ADD00BF4FF48031204A11600121204AC7
:10181000D160A0F5C3711F4A116001211C4A1160FB
:1018200000BF1D4909680029FBD000211A4A116038
:101830000121174A516000BF0021E172217200BFEF
:1018400000BF607B00287FF444AE304601F0B8FC56
:1018500000BF012006494860C86040040749091DCF
:10186000086040000249C1F8080300BFBDE8FC9FC2
:1018700000800040448500404481004004830040D3
:1018800000110040001000400813004008A3004071
:1018900000A0004040A5004040A100402DE9F041DB
:1018A00005460E4617461C4601202A49096848731A
:1018B00001F010F8252000F067FA3A463146284634
:1018C000FFF7B2FC23480068407B58B300F05CFB94
:1018D00020490968C1F81801002000F0A7F91D4847
:1018E00000681630FFF7B4F91A480068D0F81811EC
:1018F000184800681630FFF71FFA164800682030B5
:1019000000F0A0FA13480068233000F02BFA1120F1
:101910001149086004201149C1F800020D4800680F
:10192000FFF7A4FD01F0B8FE0A480068007910B97D
:101930000020207005E0072020700020054909687C
:101940000871002000F068F9012000F065F9BDE899
:10195000F081000074000020001200400080004070
:10196000054801680548008801EB00400021044A51
:1019700003C2034903C97047409500405800002046
:10198000600000200146002000E0401C044AD2789C
:10199000824203DD024A125C8A42F6D1704700009F
:1019A000DA00002008B505E09DF80000AB2801D161
:1019B000012008BD684601F07BFE0028F4D100BF7D
:1019C000F7E7000010B50223074C2360064B0833ED
:1019D0001860064B044C14342360034B0C3319601D
:1019E0001B1D1A6010BD000000F500401A260020E3
:1019F000014600200022084B1A6040F00100022935
:101A000001D1CA0300E000221043044A1060012201
:101A1000034B1A607047000004F1004004F50040D9
:101A200000F0004000B9704700BF00BF00BF03498D
:101A300009680029FBD000BF00BFF4E704F10040B3
:101A40000548006830B10548006808B101207047BA
:101A50000020FCE70020FAE704F1004000F4004019
:101A600000200549086001208107086000BF024886
:101A700000680028FBD070470001004002200749A1
:101A8000086000200649086001208107886000BFC7
:101A9000034800680028FBD070470000180500408C
:101AA0000401004000200F4908600F49C1F80401FB
:101AB0000120086000BF0B48006820B90948001DDC
:101AC00000680028F7D00748001D0068012804D1ED
:101AD00000200449091D0860704700200149086082
:101AE0000120F9E700E1004000E0004070B5044645
:101AF0000D460D480068854205D0102229460A4847
:101B0000006801F049FEFFF7CDFF58B107480068B3
:101B1000844205D0102205480168204601F03CFEB1
:101B2000012070BD0020FCE7F8000020FC00002030
:101B30002DE9F04104460F46154639462046FFF789
:101B4000D5FF06466A1E03E0FFF7ACFF0646521EAD
:101B5000002A01DD002EF7D006480068844205D037
:101B6000102204480168204601F016FE3046BDE808
:101B7000F0810000FC000020064807490860103092
:101B80000649086010300649086020380549086099
:101B90000120704745260020F4000020F8000020B6
:101BA000FC00002004E5004010B504461022214648
:101BB0000248006801F0F0FD10BD0000F4000020B4
:101BC00070B505460C460348015D284600F04FFC01
:101BD00070BD00000801002010B50446204600F04A
:101BE00053FC10BD10B5FF2208210948FEF7E6FBA3
:101BF000002409E00749085DFFF7EEFF0549085D8D
:101C000000F00AF8601CC4B2042CF3DB10BD000025
:101C100000010020C837000010B504460249085DE5
:101C200000F025F810BD0000C837000010B50446CC
:101C30000249085D00F00EF810BD0000C837000032
:101C400010B504460249085D00F02AFC10BD0000F2
:101C5000C837000000BF00BF4FF0A0410A46012373
:101C600003FA00F1C2F80C1500BF00BF704700BFB7
:101C700000BF4FF0A0410A46012303FA00F1C2F869
:101C8000081500BF00BF704710B500F04DF8FFF712
:101C9000A9FFFFF771FFFFF7E3FEFFF7EFFE10BDAF
:101CA00010B50446204600F0B7FA18B9204600F0F7
:101CB000A3FA18B10120A0400149086010BD00003E
:101CC00008F5014010B50446204600F0A5FA18B901
:101CD000204600F091FA18B10120A04001490860A7
:101CE00010BD000004F5014070B505460E463146B2
:101CF000284600F055FA0446FF2C01D0204670BD5E
:101D00003146284600F096F9F9E770B505460E46CB
:101D100031462846FFF7E8FF0446FF2C02D0204654
:101D2000FFF7D0FF204670BD10B5F0210148FEF747
:101D30004DFB10BD7826002009490968017008494B
:101D400008390968090E4170054908390968090C04
:101D50008170034908390968090AC1707047000099
:101D6000241500400178074A1160417809068278FD
:101D700041EA0241C27841EA0221024A083A11606E
:101D80007047000024150040282290FBF2F302FB6C
:101D90001302D0B2114A10701278252A04D0262AD4
:101DA00004D0272A06D103E002210DE01A210BE01E
:101DB000502109E00A2801DD012200E0002202444E
:101DC0005200121DD1B200BF00BF054A1160034A84
:101DD0001278034B4C331A6070470000F300002068
:101DE0000815004070B504460A46002000216CB971
:101DF00040F48070022A01D1D50500E00025284377
:101E000000BF40F0080040F4801005E040F00600FC
:101E100040F4807040F400302523194300BF41F4A2
:101E2000403100BF41F00071022A01D1042500E0D9
:101E30000325034E3560351D28602D1D296070BDBA
:101E40001015004040F20311084A116040F25B6136
:101E5000121D116081780904427841EA022102785A
:101E60001143024A083211607047000034150040E7
:101E700000200149086070474016004030B54C789A
:101E80000D7844EA05228C782406CD7844EA05448E
:101E90000D7944EA05244D7944EA0503064C236094
:101EA000054C20342260A41504EA002444F0010407
:101EB000014D40352C6030BD0016004010B500F0DB
:101EC0002BF910BD10B500F057F901200149486009
:101ED00010BD00000010004001480068704700007D
:101EE0000815004010B50120012181401E4A430918
:101EF00042F8231000BF00201C4908600120086040
:101F000013201B49086000201A4908601949203134
:101F100008600120091D086010201749C1F804035A
:101F2000012001218140154A430942F8231000BFD6
:101F30000021002807DA4A07140E114A00F00F03A7
:101F40001B1FD45403E04A07130E0E4A135400BF5C
:101F50000120012181404209920002F1E022C2F8F1
:101F6000001100BF10BD000080E100E0FC1F004038
:101F7000001200400C1500400010004080E200E01C
:101F800018ED00E000E400E0014800687047000040
:101F90000415004001490860704700000415004026
:101FA000012806D10549096841F00101034A116081
:101FB00003E002490968014A116070475016004069
:101FC00001480068C0B27047481500400346044805
:101FD0000360044801600448026004487047000040
:101FE00090000020940000209800002006020020AD
:101FF00010B50246501A4FF6FF7390FBF3F403FB43
:1020000014005B10984201DA012010BD0020FCE7AB
:10201000024682EA010070470146002006E00122E4
:1020200082400A4002B17047421CD0B20828F6DB59
:102030000020F8E770B502460B46002120E001EBD6
:102040004100114C04EB8000007AC0B901EB41045F
:102050000D4D45F8242001EB410405EB8404636039
:10206000012401EB4105084E06EB85052C72C8B230
:10207000064C44F8302004EBC004636070BD491C7A
:102080001429DCDBFF20F9E77826002010F5014059
:102090002DE9F04105460E4616B13320405D01E0C2
:1020A0003420405D074600243846FFF7B5FF00F0B6
:1020B000070044EA0014FFF7C3FC18B9D5F818016B
:1020C000407808B9012000E0002044EAC00400F094
:1020D00049FB44EA800444EA46040348006820437C
:1020E000C4B22046BDE8F0810014004010B5FFF7EF
:1020F000F9FE01210846FFF775FE2520FFF744FE93
:102100000348FFF79FFE0348FFF72CFE10BD0000B9
:10211000B0370000B33700001348006810B313490C
:1021200008681021124AC2F8081300210F4A1160F2
:102130000E4AF03A116001210D4A116100BF00BF43
:1021400000BF0A49F03909680029FAD000BF002110
:10215000064AF03A11600649C1F800021021054A0A
:10216000116000BF70470000501500400012004091
:102170000010004004130040002007490860074990
:10218000C1F80C010449143908600349091F0860AB
:10219000091F08607047000018110040001000403F
:1021A00030B502460B4600211FE001EB4100114C07
:1021B00054F82000904217D101EB410004EB80005D
:1021C0004068984210D101EB410004EB8000007A96
:1021D00050B9012001EB4104064D05EB8404207247
:1021E00001F11400C0B230BD491C0C29DDDBFF2019
:1021F000F9E700000C0100200146142908DA01EB80
:102200004100044A02EB8000007A08B101207047C7
:102210000020FCE7782600200246A2F11400C1B29B
:102220000C2908DA01EB4100044B03EB8000007A33
:1022300008B1012070470020FCE700000C010020DD
:10224000C8B0FFF721FD684600F0F4FE01F0AEF8DB
:10225000214A22492248FFF7B9FE2249086069460F
:102260002048006800F084FA684601F00DF817A8CD
:1022700001F034F807201C4908702BE01A48007858
:1022800030B1042816D0072810D0FF281CD116E042
:102290001248007808B1012000E000200146124BEE
:1022A0000D4802780E48FFF7F9FA12E00E4801F0E7
:1022B0002DF80EE000F082FC0B49087009E000F0F8
:1022C0007DFC0949087004E000F078FC06490870BC
:1022D00000BF00BFD2E70000100000200F00002068
:1022E0000900002004000020080000202DE9F04132
:1022F00004460D46D4F81801C77837B1012F40D0F5
:10230000022F7DD0182F7CD168E0D4F81801407BD3
:10231000D4F81811897B40EA0126E1893046FFF79D
:1023200067FE58B39C34E06F007904F8660CE06FE8
:102330004079E16F9C3C897940EA01212187D4F8FA
:102340001801C079D4F81811097A40EA012161878F
:10235000D4F81801407AD4F81811897A40EA01219A
:10236000A187D4F81801C07AD4F81811097B40EA83
:102370000121E18726820120607101E00020607365
:1023800057E0D4F81801407AD4F81811897A40EA55
:102390000126E1893046FFF72BFEE0B1D4F81801A1
:1023A000007984F85600D4F8180141795720015576
:1023B000D4F81801817958200155D4F81801C17951
:1023C00059200155D4F81801017A5A200155668226
:1023D0000120A07101E0002060732AE0D4F8180108
:1023E0008079D4F81811C97940EA0126E18930468C
:1023F000FFF7FEFD78B1D4F818010179532001E010
:102400000AE015E00155D4F818014179542001552E
:10241000A6820120E0710CE0207840B901202070F4
:10242000D4F818010078C0F3C000A070E57000E097
:1024300000BF00BFBDE8F0811060431853601182F7
:102440009060D0607047F0B5DDE9054500BF4FF002
:10245000A0473E4641EA420747EA830747EA042786
:1024600047EA054C06F5E06747F820C0F0BD7CB5AB
:1024700005460C4600200090234602460146019086
:102480002846FFF7E0FF7CBD1CB504460020009005
:1024900003460122114601902046FFF7D4FF1CBDE0
:1024A00000BF4FF0A0431946D1F804250123834013
:1024B0009343C1F80835012383401340C1F80C351C
:1024C000704700000448007800F00F010248001F28
:1024D000006861F31F207047E40F00F02DE9F04120
:1024E00004460D462078C0F380062078C0F3C0076C
:1024F000607808B9012000E0002080461DB118482E
:1025000080F8008029E0174801783846FFF780FD01
:1025100078B91448FEF75CFB607850B11248006847
:10252000D0E90020511C40F100000F4A1268C2E9B6
:1025300000100E48007886420DD00948007850B946
:102540000B480068D0E90020521C40F10000084907
:102550000968C1E9002005480670BDE8F081000067
:10256000F1000020F2000020EC000020F00000202C
:10257000E80000200948006809490860012109486D
:10258000816409480068084908390968884204D20A
:1025900002480068401E024908607047540000204D
:1025A00058000020009000404895004070B5044657
:1025B0002068C5780026E81E09283DD2DFE800F033
:1025C00005202D353C3C3C36370020684168C4F876
:1025D0007F108068C4F8830004F180002168898935
:1025E000A4F88710216851F80E2FC4F88920496893
:1025F000C4F88D102168D1F81610C4F8A9101CE099
:1026000021684A68C4F891208968C4F89510216847
:10261000C968C4F8AD1001260FE0002204F1B10131
:1026200004F1250000F070F807E006E005E02079ED
:1026300008B900F055F800E000BF00BF304670BD9B
:102640002DE9F04104462068C51D2E780027092E8B
:1026500041D2DFE806F040050607081819223000CD
:102660003AE039E038E0207930B11022691C04F1F9
:102670005F00FDF75EFE05E01022691C04F16F00AB
:10268000FDF757FE28E027E0207928B91022691CC1
:1026900004F11500FDF74DFE1EE0207950B96D1CC8
:1026A0002889A4F835002868C4F8370068686D1ECA
:1026B000C4F83B0010E0207930B11022691C04F10D
:1026C0003F00FDF736FE05E01022691C04F14F00C3
:1026D000FDF72FFE00E000BF00BF3846BDE8F081E7
:1026E00010B506480068FFF755FC05480078FFF76D
:1026F000D7FA00200349087010BD00002C0000200C
:10270000480000201C00002070B504460E46154607
:10271000102221460E4801F03FF80D48193031686B
:1027200001607168416000F0B5F8284600F0C0F81B
:102730000848FFF72FFC08480078FFF7C3FA01208C
:102740000649087000200649C1F8040170BD000068
:10275000A0010020C8010020480000201C0000202B
:102760000010004001480078704700001C00002065
:1027700070B504460D4615480560154815490860B2
:10278000FFF7B4FC144804600068FFF703FC002066
:10279000124908601248134908601348046002682F
:1027A000084601681148FFF70DF911491148FFF774
:1027B000ACFA11490F480838FFF796FA0F4908702C
:1027C0000F491048FEF726FD70BD00004C000020A8
:1027D00020000020280000202C0000200082004063
:1027E000C80100203000002034000020A00100209B
:1027F000409000400C11004004F0004048000020D0
:10280000400000203800002010B50446FFF75AFBB6
:1028100000BF0448006810B920780028F9D1FFF7FC
:10282000A9FE10BD1011004070B5044600254020DF
:102830001449086000201449C1F80C0100BF134876
:1028400000680028FBD001200F49886010E0681C58
:1028500005460F4988420BD100F0B0F90646072E15
:1028600004D100206073A07201202071002500BFF8
:1028700006480C30006810B9607B0028E7D1FFF7EC
:1028800079FE70BD041300400010004000110040AC
:10289000FFFF04000021044A116051600020034A38
:1028A0001060506070470000400000203800002099
:1028B00010B1054A06CA01E0044A06CA044BC3E93E
:1028C00004121946087670473800002040000020A6
:1028D000A001002010B5FFF7F1FAFFF707FCFFF7A2
:1028E000FFFE01200549486005494860FF20054971
:1028F000086000200149C1F8000210BD00800040BE
:1029000000A000400813004010B5FFF7D7FAFEF70B
:10291000E1F90446FFF738FAFFF7D4FA10BD0000DA
:1029200078B506460C466946304600F0B9F80546CB
:102930006DB39DF80000CD2808D19DF80000154921
:1029400008706946304600F0ABF80546FDB1114805
:102950000078CD2803D09DF80000207013E09DF88A
:102960000000AC2804D0BD2805D0CE2809D105E050
:10297000AB20207006E0BC20207003E0CD2020704A
:1029800000E000BF00BF9DF8000002490870284623
:1029900078BD0000D90000202DE9F04180460C46AA
:1029A00001273A480078002832D13948007828B900
:1029B000BC20207001203649087063E00025002605
:1029C0000DE02DB933480078BE2801D1012506E07D
:1029D0002DB126B92F480078EF2800D1012605B186
:1029E0002EB92C49404600F05BF80028E9D105B12A
:1029F0000EB900270BE00127FF20244908700020B2
:102A000025490870AB20207000202149087039E06A
:102A10002248007820B91F49404600F041F8074697
:102A200087B31D480078012804D11A480078401D5A
:102A30001649087018480078401C17490870154856
:102A40000078AB2804D0BC2803D0CD280DD101E0FC
:102A500000BF00BF0F480078401C0E490870CD2011
:102A6000207001200D4908700BE00A4800782070A2
:102A700006480078401E0549087000200749087084
:102A800000BF00BF3846BDE8F0810000D60000203E
:102A9000D5000020D3000020D7000020D400002063
:102AA00010B503460C461846FEF731F868B9986829
:102AB000007820709868401C98609868596888422F
:102AC00001D318689860012010BD0020FCE70000C9
:102AD00010B5FEF7E4F804462146062000F010FB8E
:102AE00001202E49886000202D4908602B49C1F83B
:102AF000040100BF01202B49C860D2202A49086088
:102B00004FF400302949086040102649C1F80403F9
:102B10000120086000BF26490968487200BF2048AC
:102B20000838006820B922480068407A0028F6D1A9
:102B3000FFF720FD00BF01201A494860C86000046B
:102B40001A49086000BF1A480068407A98B100BF6F
:102B5000134800680028FBD0FFF70CFDFFF7D4FEF8
:102B6000002014490870FEF7C9F8044621460620E3
:102B700000F0C6FA10E010480068502807D0FFF7B0
:102B8000C3FEFFF7C1FE00200A49087004E0FFF70A
:102B9000BBFE00200749087010BD00000010004077
:102BA0000C11004000800040408500400883004038
:102BB0007400002070000020081500407CB501243E
:102BC000FAE080480078032830D005DC58B10128AD
:102BD0000FD002287DD117E0042832D0052868D014
:102BE000FF28F7D176E0FEF7DDFE04467548047055
:102BF000E1E0754800F05CFD044624B171480078BE
:102C0000401C70490870D6E0704800F051FD044641
:102C10005CB16C480078401C6A4908706B480078C9
:102C2000442802DD442069490870C4E0684800F087
:102C30003FFD044624B163480078401C6149087098
:102C4000B9E061480078062822D1624800686249EC
:102C50000860002505E05F49481900F029FD044699
:102C60006D1C022DF7DB5B48006841F23121884280
:102C700005D159480068491E884200D000BF1CB1E8
:102C800050480078401C00E000204E4908700FE0DA
:102C9000032504E0684600F00BFD04466D1C4A481D
:102CA00000788542F6DB14B106204649087000BF63
:102CB00081E04A4800F0FCFC04464CB141480078F1
:102CC000401C404908704148007808B9FF2008704E
:102CD00071E050E0414800780C2822D003DC50B16C
:102CE00007283DD104E00D2823D0172838D123E050
:102CF00000F068F935E03A4800683A490A6802602D
:102D00008988818037488079374909680870354853
:102D1000C07908B1012000E000203449096808703A
:102D20001FE02A480078102802D12E4800F040F910
:102D300017E000F07DFA14E02A4800788DF80700CB
:102D4000284840788DF80400264880788DF80500E2
:102D50002448C0788DF8060001A8FDF7E7FF00BF02
:102D600000BF00BF002017490870174908701749B5
:102D7000087000241FE013490978891F194A881830
:102D800000F096FC044624B10E480078401C0D4922
:102D900008700C480078801F0C490978884202DBD3
:102DA000FF200849087007480078FE2802D100205B
:102DB0000449087000BF00BF002C7FF402AF074831
:102DC00000787CBDA80000209D0000209E0000200F
:102DD0009F000020A4000020A00000209C000020F4
:102DE0009000002034020020940000209800002071
:102DF00001780909027802F00F0241EA021101701C
:102E0000017801F0CC018910027802F0330241EA26
:102E100082010170017801F0AA014910027802F0E4
:102E2000550241EA420101707047000005480078F0
:102E3000C0F303100349091D097801F0F0010843AC
:102E400070470000E80F00F010B50F4800684078A8
:102E50000E4909780844252190FBF1F201FB12008C
:102E6000C4B20A4804702046FDF7BAFE08B12046F5
:102E700010BD074890F8250094FBF0F200FB1240CB
:102E8000C1B20348405CF3E7E4000020E00000200A
:102E9000D42500202DE9F04106460C46E278A378BF
:102EA00042EA03216278237842EA032000F063F8C3
:102EB00080464146304600F03FF80546252095FB08
:102EC000F0F100FB1150C7B23846FDF789FE10B192
:102ED0003846BDE8F081044890F8252002FB05F053
:102EE00001140148405CF4E7D4250020024611207B
:102EF00000FB021398B2704770B50446E0B200F0D0
:102F000008F80546200A00F004F845EA002080B2DF
:102F100070BD10B501460022002009E041FA00F31F
:102F200003F00103C0F10704A3401343DAB2401CCD
:102F30000828F3D3104610BD2DE9F04105460E4692
:102F40003146284600F017F80746002409E03846C5
:102F5000FFF7D2FF074631463846FFF7C7FF07465F
:102F6000641C032CF3D33146384600F004F80746BE
:102F70003846BDE8F081024682EA01007047000051
:102F800070B50024002500BF0AE02046FDF728FEAA
:102F900020B12846691CCDB204490C54601CC4B24F
:102FA000252CF2DB014880F8255070BDD425002087
:102FB00010B5044610222146014800F0EDFB10BD7B
:102FC000FA25002010B50248FFF7F2FF10BD0000FF
:102FD0000A26002000B5064A4FF47A710548FFF72B
:102FE0002BFA054A4FF4FA510448FFF725FA00BDC1
:102FF0006006002078020020B4250020740600201E
:103000004FF40030014908607047000008B30040E9
:103010004FF400300549086000210548C0F844110C
:1030200001200349486088600860704704B300408D
:1030300000B0004010B5044627480460012027492D
:1030400048602749486027494860002026490860B1
:10305000042025490C31086003202349091D08601C
:103060000420224908600820FDF788FA0020204942
:10307000086004201E490C31086000201C49091D0D
:1030800008604FF400301549C1F8040300211848C6
:10309000403001600120114908600920FDF76EFAF7
:1030A000002014490860042012490C3108600020F7
:1030B0001049091D08600A20FDF760FA28200E4912
:1030C00008603C210C483C3001600B20FDF756FAAB
:1030D00001200A49086010BD6800002000900040EF
:1030E0000080004000A000400485004000820040B5
:1030F0000495004004A5004008B5004000B0004021
:1031000070B506460C460B48007888B9012009497D
:1031100008702046FEF754F80748C0780830C5B25A
:103120002946054800F0F2FA00200249087000BF65
:1031300070BD000084000020F001002070B505463D
:103140000C4611480078F0B906211048FDF7ACFC98
:103150000E484572FDF758FCFEF732FF0B49C87266
:103160000C73200A4873FDF781FCFDF733FCFDF773
:1031700053FC0648C0780830C1B2044800F0C6FAD3
:1031800000200149087070BD84000020F00100207B
:1031900010B50948007868B9012007490870052171
:1031A0000648FDF781FC0821044800F0AFFA002032
:1031B0000149087010BD000084000020F0010020CB
:1031C00010B504460C480078A8B901200A490870D7
:1031D00009210A48FDF768FC08490C72200A487268
:1031E000200C8872200EC8720C21044800F08EFA60
:1031F00000200149087010BD84000020F00100206B
:1032000010B50948007868B9012007490870012104
:103210000648FDF749FC0821044800F077FA002031
:103220000149087010BD000084000020F00100205A
:1032300010B50948007868B90120074908700748A7
:10324000FDF7D4FB0A210548401F00F05FFA00207B
:103250000149087010BD0000840000208A00002091
:1032600070B504460D4621462846FEF707FE044881
:10327000006840F040000349C1F8040370BD00003D
:103280000413004000100040134908600121124A55
:1032900012685173104A126891720F4A1268517283
:1032A00000210D4A126891710B4A126851710A4A45
:1032B00012681171084A12681173074A1268117274
:1032C000054A12685170044A12681170024A126865
:1032D00082F81C1170470000740000201FB50446DE
:1032E000002000900190029003906846FFF760FE76
:1032F000102269460448FDF71CF81022694604F1C3
:103300001500FDF716F81FBD0A26002038B5044643
:1033100001200090FFF7DEFAFEF7AAFD0020FEF77D
:103320007BFCFFF775FE3AE00120FEF789FCFFF712
:10333000EBFA6846FFF768FAFDF7B1FC0546294647
:103340000620FFF7DDFEFFF7DFFA6846FFF75CFABD
:10335000FDF7A5FC054629460620FFF7D1FEFFF73D
:10336000D3FA6846FFF750FAFDF799FC054629465F
:103370000620FFF7C5FEFFF721FC20702078FF280C
:103380000DD0207807280AD020780D2807D0207883
:103390000C2804D02078172801D0002000909DF838
:1033A00000000028C0D1FFF72BFE38BD70B5002605
:1033B0000025FDF773FD012803D0124800F0EEF858
:1033C0001FE000F05DF918E02846691CCDB2C11776
:1033D00000EB91718910A0EB81010B4A52F821405A
:1033E0000849204600F076F808B1012605E00749B3
:1033F000204600F06FF800B10126002EE4D000F066
:103400004BF970BDB0000020B8370000BC000020B0
:1034100000B504490448FFF7BFFA10B9002003497A
:10342000087000BD1C250040B4250020D0000020FD
:103430002DE9F04705460E4614464FF0000825607A
:1034400026712068007800F003072068407800F0BB
:103450001F09206840792168897940EA012AB9F179
:10346000000F16DD012F0CD0022F02D0032F0ED13A
:1034700008E0BAF1060F03D12046FFF7E1F88046D5
:1034800006E005E02046FFF791F8804600E000BF27
:1034900000BF31462846FFF721F8032F04D1E87812
:1034A000052801D1FFF7F6F94046BDE8F08702464E
:1034B000D078884201D100207047D2F818010078F6
:1034C000C0F380039078984201D00120F4E70020F7
:1034D000F2E7000038B504460D4601202149486056
:1034E0008860214804600120086000F0D5F8284673
:1034F00000F054F81BE0FFF79BFE00BF4FF4803054
:103500001A49086001201A49C8601A481A49086017
:1035100001201749086000BF184800680028FBD048
:1035200000201649086001201149486000BF0E487C
:1035300044380068A042DED300F0A2F8684600F0EC
:10354000B7F808B1012038BD00BF684600F0B0F8F8
:103550000028FAD10A4948600860886000F012F833
:103560000020F0E700B0004048B5004008A300404C
:1035700000A00040A086010040A5004040A10040FE
:103580006006002000B5034A4FF47A710248FEF746
:1035900053FF00BD600600207802002070B504468D
:1035A000FFF718FD2F4894E80E000EC06078FEF774
:1035B00013FB2078FEF710FB6078FEF758FB2078AD
:1035C000FEF755FBE0780021FEF7FAFAA07800211B
:1035D000FEF7F6FA2078244908606078091D086033
:1035E000A078091D0860E078091D086000201F49C7
:1035F00008601F49C1F81C0104201B4908390860F4
:1036000019491C31A0680860207908B1012000E048
:1036100000201549643108600420164908608020A4
:103620001349C1F8040301208860086002200321C7
:10363000002807DA4A07150E0F4A00F00F031B1F78
:10364000D55403E04A07130E0C4A135400BF02205E
:10365000012181404209920002F1E022C2F80011EA
:1036600000BF70BDC825002008250040082100408B
:10367000002000400423004018ED00E000E400E0DA
:1036800004200349086080200249C1F808037047FC
:1036900008230040002000400420034908608020E7
:1036A0000249C1F804037047042300400020004091
:1036B00070B504460948FDF733FA05462146074828
:1036C000FFF72EF9064635B10448FDF729FA10B97F
:1036D000042003490860304670BD000060060020E9
:1036E0000423004070B50446A08882B205482168D2
:1036F000FDF77CFB05460448007808B900F010F897
:10370000284670BDB4250020D00000207CB50446BA
:103710000D46009401956846FFF7E4FF7CBD00006C
:1037200010B50548FDF7F3F920B9012003490870E9
:10373000FFF76EFE10BD0000B4250020D000002071
:1037400010B50446A07940B1E089618A884204D16D
:103750002046FDF78BFA0020A071607968B1E089FE
:10376000218A884209D104F1360104F11600FDF7DF
:1037700029FB0020607101202072E07958B1E089B6
:10378000A18A884207D104F1360104F11600FDF741
:1037900024FB0020E07110BD10B50346002004E0BA
:1037A000141A641E0C5D1C54401C9042F8D310BDCA
:1037B0005555558E89BED60020030000A00F00008D
:1037C000401F0000E02E000011121314EC3700001F
:1037D00000000020A00100003C020000743800003E
:1037E000A00100202866000098020000111280420B
:1037F000400210FF5918000929EFCDAB8967452316
:1038000001593809161C7949A9281DBEEF0602196D
:10381000D40E58040912943D050607084414705F3D
:10382000077C0102030C9119123915052B25262757
:10383000031301031B4081944A1098290C5A040C6D
:103840001A440C5A100C1B2811085AF0BC990C1A77
:10385000040C9A040C5A44E01A0C0C5A480C9B4075
:10386000B160190C6960290CAA0C24590C110400D0
:0438700090D00300F1
:0400000500000201F4
:00000001FF
