:020000040000FA
:100000009837002059040000730400001F05000009
:1000100000000000000000000000000000000000E0
:100020000000000000000000000000007704000055
:100030000000000000000000790400007B040000C4
:100040007D04000029060000850800007D040000F2
:100050007D040000000000007D0400007D0400001D
:10006000850700002508000049080000E10600009F
:100070007D0400007D0400007D0400007D0400007C
:100080007D0400007D0400007D0400007D0400006C
:100090007D0400007D0400007D0400007D0400005C
:1000A0007D0400007D04000000000000000000004E
:1000B0000000000000000000000000000000000040
:1000C00000F002F800F032F80CA030C8083824180C
:1000D0002D18A246671EAB4654465D46AC4201D180
:1000E00000F024F87E460F3E0FCCB6460126334280
:1000F00000D0FB1AA246AB4633431847E834000051
:10010000083500000023002400250026103A01D302
:1001100078C1FBD8520700D330C100D50B607047BF
:100120001FB5C046C0461FBD10B510BD00F06EF92A
:100130001146FFF7F5FF01F04DFF00F086F903B41B
:10014000FFF7F2FF03BC00F0B5F9000070B50546FB
:100150000C46164602E00FCC0FC5103E102EFAD208
:10016000082E02D303CC03C5083E042E07D301CCCE
:1001700001C5361F03E021782970641C6D1C761EB2
:10018000F9D270BD034610B50B439B070FD1042A6B
:100190000DD308C810C9121FA342F8D018BA21BA4B
:1001A000884201D9012010BD0020C04310BD002AA3
:1001B00003D0D30703D0521C07E0002010BD037802
:1001C0000C78401C491C1B1B07D103780C78401C81
:1001D000491C1B1B01D1921EF1D1184610BDF8B568
:1001E000042A2CD3830712D00B78491C0370401CBF
:1001F000521E83070BD00B78491C0370401C521E03
:10020000830704D00B78491C0370401C521E8B07D7
:100210009B0F05D0C91ADF002023DE1B08C90AE0A6
:10022000FFF794FFF8BD1D4608C9FD401C46B440C9
:100230002C4310C0121F042AF5D2F308C91A521E0B
:10024000F0D40B78491C0370401C521EEAD40B7882
:10025000491C0370401C012AE4D409780170F8BDE0
:10026000D2B210B513029A1813049A1800F00EF8BF
:1002700010BD01E004C0091F0429FBD28B0701D582
:100280000280801CC90700D00270704700290BD083
:10029000C30702D00270401C491E022904D3830701
:1002A00002D50280801C891EE3E70022EEE70022CF
:1002B000DFE7002203098B422CD3030A8B4211D3C0
:1002C00000239C464EE003460B433CD400224308E7
:1002D0008B4231D303098B421CD3030A8B4201D3D7
:1002E00094463FE0C3098B4201D3CB01C01A52416F
:1002F00083098B4201D38B01C01A524143098B42BF
:1003000001D34B01C01A524103098B4201D30B01A7
:10031000C01A5241C3088B4201D3CB00C01A5241CC
:1003200083088B4201D38B00C01A524143088B4291
:1003300001D34B00C01A5241411A00D2014652412A
:10034000104670475DE0CA0F00D04942031000D349
:100350004042534000229C4603098B422DD3030A9E
:100360008B4212D3FC22890112BA030A8B420CD3AE
:10037000890192118B4208D3890192118B4204D3D7
:1003800089013AD0921100E08909C3098B4201D357
:10039000CB01C01A524183098B4201D38B01C01A91
:1003A000524143098B4201D34B01C01A5241030908
:1003B0008B4201D30B01C01A5241C3088B4201D3B7
:1003C000CB00C01A524183088B4201D38B00C01A64
:1003D0005241D9D243088B4201D34B00C01A52413B
:1003E000411A00D20146634652415B10104601D3C8
:1003F0004042002B00D54942704763465B1000D352
:10040000404201B50020C046C04602BD754600F01E
:100410004DF8AE46050069465346C008C000854603
:1004200018B020B500F02CF860BC00274908B6468B
:100430000026C0C5C0C5C0C5C0C5C0C5C0C5C0C5F3
:10044000C0C5403D49008D4670470446C046C04681
:100450002046FFF774FE000003210C4802680A439F
:1004600002600B4802680A4302600A4880470A4853
:100470000047FEE7FEE7FEE7FEE7FEE7FEE70000D7
:1004800006480749074A084B70470000240500400A
:100490005405004021070000C100000098270020FB
:1004A00098370020982F0020982F00200048704790
:1004B0003827002001491820ABBEFEE726000200C5
:1004C000704770477047704770B58C180578401CAE
:1004D0006B075B0F01D10378401C2A1106D102780B
:1004E000401C03E00678401C0E70491C5B1EF9D1CD
:1004F0002B0705D40023521E0DD40B70491CFAE7BC
:100500000378401CCB1A921C03E01D780D70491C27
:100510005B1C521EF9D5A142D8D3002070BD00E06B
:1005200000BFFDE7C206D20E01219140014A1160D1
:100530007047000000E100E010B5002819DA1A4AFF
:1005400003071B0F083B9B089B00D2588307DC0E58
:10055000FF23A3409A438B071B0E8407E40EA3409E
:100560001A43114B0407240F083CA408A4001A5195
:1005700018E00E4A03231B02D21883089B00D258AE
:100580008307DC0EFF23A3409A438B071B0E8407CF
:10059000E40EA3401A43054B032424021B198408CC
:1005A000A4001A5110BD00001CED00E000E100E0C5
:1005B00010B5002819DA1A4A03071B0F083B9B08DD
:1005C0009B00D2588307DC0EFF23A3409A438B077E
:1005D0001B0E8407E40EA3401A43114B0407240F9B
:1005E000083CA408A4001A5118E00E4A03231B0279
:1005F000D21883089B00D2588307DC0EFF23A34048
:100600009A438B071B0E8407E40EA3401A43054B45
:10061000032424021B198408A4001A5110BD0000F1
:100620001CED00E000E100E026484068002816D0FC
:100630002548406802210840002810D000202149A8
:10064000486000BF012021494860000420498860BB
:1006500001201E49C86000BF1E4909680873194877
:10066000C06800280BD018484068082108400028BE
:1006700005D000201349C86001201749886011483F
:10068000806900280CD010484068402108400028AC
:1006900006D000200B49886101201049C86088609D
:1006A0000848006800280BD007484068C007C00F02
:1006B000002805D000200349086001200249886015
:1006C00070470000001100400013004000A00040EF
:1006D00000A300404C00002000B00040001000408B
:1006E00010B50C484068002812D00B484068012122
:1006F0004904084000280BD0002106484160012031
:1007000006494860886002F0AFFC01200349086098
:1007100010BD000040B1004000B3004000B00040F8
:1007200010B501F0E7FA002805D0104810494860DC
:10073000C8131049886101F0C1FA002802D00120D5
:100740000D49886001F00CFB00280ED00B480068B2
:10075000012807D00A480949086000BF0748006817
:100760000128FBD1C0200549486110BDDFFF07C04B
:1007700000050040006C00400006004000EC064010
:100780007593000023480068002812D02248406872
:1007900001210904084000280BD000201F490968E6
:1007A00088721E49096848721A49086001201C496C
:1007B000486018484068002811D017484068012157
:1007C0004904084000280AD0002014490968087329
:1007D000012012490968C87200210E4841600D4885
:1007E0008068002814D00C48406801218904084022
:1007F00000280DD000200949096808730120074925
:100800000968C87200210348816001200449C8605A
:1008100070470000408100400083004068000020D5
:100820000080004006484068002807D000210448A6
:10083000416004480068401C02490860704700009D
:1008400040910040540000200A48006800280FD062
:1008500009484068012109040840002808D0002008
:100860000649096808730349086001200449486083
:100870007047000040A1004000A300406800002035
:1008800000A0004010B525488068002834D02448D6
:1008900040680421084000282ED000201F498860AD
:1008A0002048007800280FD101221F491F4800F07E
:1008B0006DFA1C49087008460078002804D11C48CD
:1008C0000068401C1A4908601A4880691649087077
:1008D00019480068401C1849086001221249134851
:1008E00000F054FA0F490870104800F0DBF80028B7
:1008F00002D004200A4988600848C069002804D052
:1009000000200649C86102F09FFC0448406A0028A4
:1009100002D000200149486210BD000000210040C3
:1009200000230040D2000020D100002060060020FB
:10093000CC00002000250040C800002030B47446E0
:10094000641E2578641CAB4204D3635D5B00E3182E
:1009500030BC18471D46F8E708B5684601F078F83E
:1009600004226946014802F022FE08BD020200206E
:10097000054909680904090E4170034A11684A1CB7
:10098000014B1A60017070478000002010B500F024
:1009900050F90149887210BDF001002010B51248CD
:1009A000C078401DC4B21148C0680002000E0E4954
:1009B00008550E48C0680004010E0B4A601C115413
:1009C0000A48C068C1B2A01C1154A11C501802F002
:1009D00029F9054A611C501802F024F90249081946
:1009E00002F020F910BD0000F001002000140040CA
:1009F00070B5002400F044FE05460A480068291A34
:100A00000948C07D0A30C0000C1A07498C732004C5
:100A1000000EC8732002000E0874200E48740148AE
:100A2000056070BD7C000020F001002070B5044618
:100A30000D46BE202070EF2060700620A0700120BF
:100A40002071E571601DFFF793FF092D02D104208D
:100A5000E0701DE0052D02D10020E07018E0012DAE
:100A600002D10020E07013E0062D11D1E17D25298F
:100A700001DD252100E0E17D084601460A31C8B2CA
:100A8000011DC8B2C11CC8B2C11CC8B2E07000BF11
:100A900070BD01468868CA68904201D10120704744
:100AA0000020FCE701468A68C868401C824207D0E3
:100AB00088680A68904205D1C8684A68904201D1A6
:100AC000012070470020FCE710B5044623465F3341
:100AD00022466F322049601D00F0E3F908222146CA
:100AE000893120469930FFF77AFB0822214691315F
:100AF0002046A130FFF773FB04222146A93120468E
:100B0000B130FFF76CFB04222146AD312046B530F1
:100B1000FFF765FB0222114920468730FFF732FBC1
:100B200000280FD108220D4920467F30FFF72AFB0D
:100B3000002807D122469932611D2046253000F059
:100B4000A3F907E022469932214615312046253087
:100B500000F09AF910BD0000FA2500200A260020B6
:100B60000178002901D1012100E0002101707047C6
:100B700010B501460846CC17640F24186405220EF0
:100B8000CC17640F2418E410E4000C1BE3B22529F1
:100B900003D0262901D0272901D1002010BD064805
:100BA00000681130805C01249C402040002801D066
:100BB0000120F3E70020F1E7E400002010B504462F
:100BC00007480068007F002806D0054801680D31FD
:100BD000204602F077F810BD02F050F8FBE7000065
:100BE000E400002010B504460348046000200349D7
:100BF000087002F0DBF810BDE4000020E0000020E7
:100C000010B504465620015D272001555720015D8F
:100C1000282001555820015D292001555920015DEA
:100C20002A2001555A20015D2B20015502F0BEF803
:100C300010BD70B500F0D0FF0446022C01D125256F
:100C40000FE01A2C01D126250BE0502C01D12725CD
:100C500007E060081A2C01D2022100E00321401AAB
:100C6000C5B2284670BD000070B5FFF7E2FF06462A
:100C7000304600F017FD04460448C178601CFFF7B9
:100C800022FB0D460148405D70BD0000DA000020E7
:100C900070B5FFF7CEFF0646304600F003FD044670
:100CA000054AD178D2781219501EFFF70CFB0D4679
:100CB0000148405D70BD0000DA00002010B5044618
:100CC000042221460148FFF78AFA10BDDA0000200D
:100CD0000A7A8275CB79C3758B7903764B79437623
:100CE0000B798376CB78C3768A7C42734B7C837393
:100CF0000B7CC373CB7B03744B7D03730B7DC3727F
:100D0000CA7C82728A7D0270CA7D0B7E1B021A43E6
:100D100042804A7E8B7E1B021A438280CA7E0B7FF2
:100D20001B021A43C2804A7F8B7F1B021A43028137
:100D3000CA7F42742022535C83742122535CC374A3
:100D40002222535C03752322535C43752422525C98
:100D5000D206D20E427001224277827770470A781B
:100D600002704A8842808A888280CA88C2800A8942
:100D7000028170474A7F002A01D04A7F42778A7FEA
:100D8000002A01D08A7F827770470000FEB50446B2
:100D90000F4615460020019027480078002848D1CA
:100DA000012025490870E068A168884201D2A06846
:100DB00000E060680090E0684119009881420DD21F
:100DC000E0682A463946FFF70AFAE0684019E06011
:100DD0000020194908700120019026E0E068A16810
:100DE000884222D3A088E168401A86B2AE4201DA76
:100DF000304600E028460646A0682168401AA91B34
:100E0000884211DDE3686168CA1AE0683946FFF775
:100E1000E6F9AA1BB9192068FFF7E1F9A91B2068B8
:100E20004018E0600120019000BF002002490870D6
:100E300000BF0198FEBD0000D800002000B501F001
:100E400033FA012801D0002000BD01F009FF0300A2
:100E5000FFF774FD0A1806080A0C14160E10121873
:100E60000120F1E70220EFE70120EDE70220EBE7A8
:100E70000320E9E70420E7E70520E5E70020E3E7B2
:100E80000020E1E70020DFE770B506460C46154676
:100E9000204600F00FFD05222946304600F0D0FC28
:100EA00070BDF0B585B006460F4614461D460822B3
:100EB000214602A8FFF793F9082229466846FFF762
:100EC0008EF96A4639463046FFF7DEFF05B0F0BDC1
:100ED00010B504460A201249087200204872062103
:100EE0000F48FFF7A3FD0E48407A0E490968002914
:100EF00001D0012100E00021084309494872084659
:100F0000847200200873487300F0AEFE0449C87272
:100F1000FFF76EFDFFF720FDFFF740FD10BD00005D
:100F2000F001002000140040024A1060024A1160E3
:100F300070470000E8000020EC000020F7B582B008
:100F40000746154602F078F83846039902F0A4F8EF
:100F50000026102080490860002080490860012098
:100F600000F0E0FC00207E49087000F02BFEE3E07A
:100F70007C48006801F05CFB00F06AFE007801909C
:100F800001988006C10F774800681630017702F09B
:100F900083FA00BF01207449C860D22073490860F9
:100FA00001204004724988604010486001216E4869
:100FB000016000BF01206B4909688872002000F0C1
:100FC000C5FCFFF736FE04462146062001F0ACFFC3
:100FD00001F002FD07280AD1002062490968487320
:100FE00060490968887201215E48006801714021EA
:100FF000604881607BE001205F49087001215A4808
:10100000C1640146152080010818C668822E1AD2D4
:1010100000BF012000045949886001205849C86078
:101020008220801B5749086001205549086000BF95
:10103000554800680028FBD0002053490860012073
:101040004F49486000BF0120504988600020504946
:10105000486000214E48C16000BF4D4840680028EC
:1010600004D140480068807A0028F6D13D480068E5
:10107000807A00283BD000BF4548C0680028FBD0DC
:1010800001F06EF900BF012037494860C8600004D4
:101090003749886000BF00203749087000F0D8FD4C
:1010A00004782007000F052814D13A480068012869
:1010B00010D12B4908702B490968487329480068EA
:1010C0001630007FA106C90F08402649096816316D
:1010D000087705E02007000F032801D101F008FC84
:1010E00000202149152292018918C86000BF1D48BF
:1010F0000068807A002800D07DE719480078002831
:1011000008D102F0D1F91C480078002813D001F072
:1011100003FB10E0002D03D000201149087001E00E
:1011200000F04CFDFFF785FD04462146062001F046
:10113000FBFE01F045FF00BF0A480068407B002825
:1011400004D007480078002800D111E701200004EE
:101150000749886005B0F0BD0012004000820040E1
:101160007100002074000020008000404085004095
:1011700000830040001300407000002000A30040E6
:1011800000A0004040A5004040A1004000100040E9
:101190000011004000140040F0B587B00446002064
:1011A000069000260125E081E0722070607000F05A
:1011B00005FD208BA17D4018F4494843059000BFF0
:1011C0000120F349C86000BF00BF152292018918B1
:1011D000059888600598001AED4989184860002133
:1011E000EC484160816003204004EB4948600120E5
:1011F000E749086000BFB5E1002004900125012007
:1012000001F05AFA0020E54908600120E4494860ED
:1012100002208860E089FFF7D1FC039000F03CFCDD
:101220000020DE4908614860C86001F09DF900288F
:1012300003D03321085D00F065FA02F02DF9332068
:10124000015D002000F056FC00F0BCFC00BFD3485C
:101250004068002805D1607B002802D0E07A002891
:10126000F5D0CE484068012823D100BF0121C848ED
:10127000C16000BF00BF0904CA4881600120CA499B
:10128000C8603220C94908600121C748016000BF19
:10129000C74800680028FBD00020C549086001212C
:1012A000C148416000BF00BF0120B949C86000BF0C
:1012B0002073678BB5494F4300BFB548152189019D
:1012C000401887603846FF388738B14915229201A7
:1012D000891848600021AF484160816003204004C4
:1012E000AD4948600120AA49086000BF0020E072B3
:1012F00000BFAA48C068002808D1607B002805D03C
:10130000E07A002802D1207B0028F2D101F028F8F1
:10131000207B002845D000200690761C0220A049A2
:10132000486000BF0120A049C860DC209F490860D8
:10133000012000049B49486001209B49086000216E
:101340009B48016000BF01F00FF9029000F0EEF938
:101350002946204600F074FD0390E189039801F0CE
:1013600001FEFF201930005900788007800F032804
:1013700003D12946204600F085FE2078002804D0BD
:101380002946204601F0B3FF6070FF21193108594A
:1013900022465C32294601F06BFF04990843049011
:1013A00003E00698401C80B2069072E001204540A0
:1013B000002D02D03320005D01E03420005D039059
:1013C000284601F079F9002074494860C86001F0AE
:1013D000CBF8002802D0039800F094F90120754959
:1013E000886000BF6D48C068002805D1E07A0028F9
:1013F00002D1207B0028F5D100F0B2FF761CE07A04
:10140000002845D1207B002842D000BF012066493A
:10141000C860DC206549086001200004614948601B
:1014200001206149086000206149086000BF01F0A7
:101430009BF8019000F07AF92946204600F000FD63
:101440000290E189029801F08DFD012000F07EFA02
:10145000FF201930005900788007800F032803D13E
:101460002946204600F00EFEFF2119310859224678
:101470005C32294601F0FCFE049908430490207870
:10148000002804D02946204601F031FF607000BFDB
:1014900000BF207B002889D102F006F800F08EFB07
:1014A000E089401CE081204602F052F804980028B0
:1014B00003D020465C30FFF707FB01F08DFA0728C8
:1014C00003D1002060730120E072608B2F494843F4
:1014D00006994143E08B401C374A5043814203DB6D
:1014E000002060730120E0722078002806D0607828
:1014F000002803D0002060730120E07200BFE07A72
:101500000028FCD00020E072207A002829D0218B0E
:101510001E4A5143084601211D4A5160218B002972
:101520001BDD00BF012109041E4A916001211E4AF2
:10153000D1600146FF3987391C4A116001211A4ADE
:10154000116000BF1A4909680029FBD00021184A20
:1015500011600121144A516000BF0021E172217223
:1015600000BF00BF607B002800D045E6304601F098
:101570003FFD00BF012006494860C860400406499D
:1015800088604000886000BF07B0F0BDE204000042
:101590000080004040810040008300400011004076
:1015A0000013004000A3004000A0004040A5004000
:1015B00040A100400010004010270000F8B505468B
:1015C0000E4617461C4601202A490968487301F057
:1015D00087F8252000F060FA3A4631462846FFF7A2
:1015E000ADFC24480068407B00282CD000F030FB84
:1015F00020490968FF3101318861002000F09CF921
:101600001C4800681630FFF7EDFA1A480068FF30F2
:1016100001308169174800681630FFF759FB1548FB
:101620000068203000F090FA12480068233000F083
:1016300023FA1120104908600420104908600D4861
:101640000068FFF7A9FD01F02FFF0A480068007944
:10165000002801D1207005E00720207000200549F6
:1016600009680871002000F05DF9012000F05AF9C6
:10167000F8BD00007400002000120040008200400D
:101680000548006805490988090440180021044AF2
:1016900003C2034903C97047409500405800002029
:1016A000600000200146002000E0401C044AD2787F
:1016B000824203DD024A125C8A42F6D17047000082
:1016C000DA00002008B505E068460078AB2801D1B3
:1016D000012008BD684601F0EFFE0028F4D100BFEC
:1016E000F7E7000010B50223044C236023469860FE
:1016F000034B63612346D9601A6110BD00F50040B9
:101700001A260020014600200022054B5A600122C3
:101710001043044A50600122034B1A6070470000D6
:1017200000F1004000F5004000F00040002800D12A
:10173000704700BF00BF00BF034909680029FBD004
:1017400000BF00BFF4E7000004F100400648406815
:10175000002807D005480068002801D00120704704
:101760000020FCE70020FAE700F1004000F4004010
:1017700000200549086001208107086000BF024879
:1017800000680028FBD07047000100400220074994
:10179000886100200649486001208107886000BFF9
:1017A000034840680028FBD0704700000005004057
:1017B0000001004000200E490860486001200D49EA
:1017C000086000BF0A480068002803D10848406844
:1017D0000028F7D006484068012803D100200449BA
:1017E000486070470020024908600120F9E70000C6
:1017F00000E1004000E0004070B504460D460E4890
:101800000068854205D0102229460B48006801F087
:10181000CEFEFFF7CFFF00280BD0084800688442B7
:1018200005D0102205480168204601F0C0FE0120C5
:1018300070BD0020FCE70000F8000020FC00002044
:10184000F8B504460F46154639462046FFF7D4FF43
:1018500006466A1E03E0FFF7ADFF0646521E002A49
:1018600001DD002EF7D006480068844205D0102222
:1018700003480168204601F09AFE3046F8BD00009A
:10188000FC0000200648074908601030064908603F
:10189000103006490860203805494860012070472B
:1018A00045260020F4000020F8000020FC00002065
:1018B00000E5004010B504461022214602480068A9
:1018C00001F075FE10BD0000F400002070B5054663
:1018D0000C460348015D284600F0B6FC70BD0000D0
:1018E0000401002010B50446204600F0BAFC10BDEB
:1018F00010B5FF2204210948FEF7B2FC002409E0DC
:101900000749085DFFF7EEFF0549085D00F00AF89A
:10191000601CC4B2032CF3DB10BD000000010020EA
:10192000E035000010B504460249085D00F018F8E3
:1019300010BD0000E035000010B504460249085D06
:1019400000F01CF810BD0000E035000010B50446A2
:101950000249085D00F091FC10BD0000E035000078
:1019600000BF00BF052109070A4601218140052368
:101970001B02D318D96000BF00BF704700BF00BF73
:10198000052109070A460121814005231B02D318BE
:10199000996000BF00BF704710B500F051F8FFF725
:1019A000A7FFFFF76FFFFFF7E3FEFFF7EFFE10BDA6
:1019B00010B50446204600F0F9FA002804D120466C
:1019C00000F0E4FA002803D00120A040014988601B
:1019D00010BD000000F5014010B50446204600F09F
:1019E000E5FA002804D1204600F0D0FA002803D000
:1019F0000120A0400149486010BD000000F50140F1
:101A000070B505460E463146284600F097FA044662
:101A1000FF2C01D0204670BD3146284600F0DEF98B
:101A2000F9E770B505460E4631462846FFF7E8FF50
:101A30000446FF2C02D02046FFF7CEFF204670BDA3
:101A400010B5C0210148FEF732FC10BD78260020F9
:101A50000849496A01700749C969090E4170054979
:101A6000C9690902090E81700249C9690904090E90
:101A7000C1707047001500400178064A51624178F4
:101A80000906827812041143C27812021143014AF6
:101A9000D16170470015004070B5054628212846E1
:101AA000FEF711FCCDB2114805700078252804D04E
:101AB000262804D0272806D103E002240DE01A24AA
:101AC0000BE0502409E00A2D01DD012000E0002098
:101AD00040194000001DC4B200BF00BF044884602C
:101AE0000248007802494031486170BDF30000208F
:101AF0000015004070B503460C4600200021002B65
:101B000008D1FF25013528430525284303252D0449
:101B1000284306E006252843FF25013528436D02AA
:101B200028432522114300BF03252D04294300BF6C
:101B300001256D0629430325024E3561354668614E
:101B4000A96170BD00150040FF210431064A5163B0
:101B500006499163817809044278120211430278A0
:101B60001143014AD1637047001500405B06000035
:101B700000200149086070474016004030B50C78DD
:101B800024024D782C4322468C782406CD782D04EF
:101B90002C430D792D022C434D792C432346064CC2
:101BA000236022620402FF2501352C4001252C43CD
:101BB000014D40352C6030BD0016004010B500F0DE
:101BC00085F910BD10B500F0AFF90120014948605A
:101BD00010BD000000100040014880687047000000
:101BE0000015004010B5012001218140124A11600A
:101BF00000BF00201149C8630120C86313201049A9
:101C0000086000200F49C860C862012008631020E6
:101C10000D4948600120012181400C4A116000BF3C
:101C20000021FEF7C5FC012001218140024A803AD3
:101C3000116000BF10BD000080E100E0C01F004047
:101C400000120040001500400013004080E200E058
:101C50000148406870470000001500400149486095
:101C6000704700000015004001488068C0B270470E
:101C700040150040034604480360044801600448DE
:101C8000026004487047000090000020940000208B
:101C9000980000200602002070B504460D46601B27
:101CA0000449FEF710FB0448814201DA012070BDAF
:101CB0000020FCE7FFFF0000FF7F00000C48008CC5
:101CC000C0B2012812D10A48808C0007000F0028FA
:101CD0000CD10748806AF0210840402806D104480A
:101CE000C06A0840002801D1012070470020FCE7AD
:101CF000C00F00F01948008CC0B201282CD1174841
:101D0000808C0007000F002826D11448806AF0213B
:101D10000840002806D11148C06A0840002801D1B7
:101D2000012070470D48806AF0210840102806D134
:101D30000A48C06A0840002801D10120F1E707489D
:101D4000806AF0210840302806D10448C06A084063
:101D5000002801D10120E4E70020E2E7C00F00F0F5
:101D60001348008CC0B201281FD11148808C000795
:101D7000000F002819D10E48806AF0210840A028E1
:101D800006D10B48C06A0840002801D101207047E5
:101D90000748806AF0210840D02806D10448C06A6C
:101DA0000840002801D10120F1E70020EFE7000002
:101DB000C00F00F002461046484070470146002020
:101DC00007E0012282400A40002A00D07047421CEE
:101DD000D0B20828F5DB0020F8E7000070B5024615
:101DE0000B46002124E00C204843134C0019007AD4
:101DF00000281CD10C244C430F4D2A510C244C4379
:101E00006419636001250C244C430B4EA419257200
:101E1000C8B20A4C51252D016419C5006251074C06
:101E200051252D016419C5006419636070BD491CFA
:101E30001029D8DBFF20F9E77826002000F00140C8
:101E4000F8B505460E46002E02D03320405D01E075
:101E50003420405D074600243846FFF7AFFF4007B7
:101E6000400E0443FFF772FC002805D1FF20193013
:101E700040594078002801D1012000E00020C00036
:101E8000044300F071FB80000443700004430348E6
:101E900000682043C4B22046F8BD00000014004092
:101EA00010B5FFF79FFE01210846FFF723FE25200E
:101EB000FFF7F2FD0348FFF747FE0348FFF7DCFD9D
:101EC00010BD0000C6350000C9350000114800698A
:101ED00000281ED0104908681021104A9160002186
:101EE0000D4A11600E4A116101210E4A116100BFB5
:101EF00000BF00BF0A49103109680029FAD000BFAD
:101F00000021074A1161044908601021034A516009
:101F100000BF704740150040001200400013004011
:101F20000011004000100040002003498861C86093
:101F300048604861086170470011004030B50246B2
:101F40000B4600211CE00C2048430F4C20589042C7
:101F500015D10C2048430019406898420FD10C203D
:101F600048430019007A002809D101240C20484375
:101F7000054D4019047208461430C0B230BD491CEA
:101F80000C29E0DBFF20F9E70801002001461029B9
:101F900008DA0C204843044A8018007A002801D04F
:101FA000012070470020FCE77826002002461046FA
:101FB0001438C1B20C2908DA0C204843044BC0186D
:101FC000007A002801D0012070470020FCE70000C3
:101FD00008010020C8B0FFF7DFFC684600F044FFAE
:101FE00001F0FEF8224A23492348FFF743FE234924
:101FF000086069462148006800F0BCFA684601F0B4
:102000005BF817A801F084F807201D4908702DE03F
:102010001B480078002806D0042817D0072811D0C4
:10202000FF281DD117E013480078002801D00120B7
:1020300000E000200146124B0D4802780E48FFF7E1
:10204000BDFA12E00E4801F07BF80EE000F0C4FC8F
:102050000B49087009E000F0BFFC0949087004E072
:1020600000F0BAFC0649087000BF00BFD0E70000CE
:10207000100000200F0000200900002004000020B4
:1020800008000020F8B504460D46FF20193000591D
:10209000C778002F06D0012F4ED0022F7ED0182FE8
:1020A0007DD182E0FF2019300059407BFF2119319A
:1020B0000959897B090208430646E1893046FFF742
:1020C000EBFD002835D0FF2019300059017936206A
:1020D0000155FF20193000594079FF211931095964
:1020E0008979090208432087FF2019300059C079F7
:1020F000FF2119310959097A090208436087FF2035
:1021000019300059407AFF2119310959897A090299
:102110000843A087FF2019300059C07AFF211931E8
:102120000959097B09020843E08726820120607172
:1021300001E00020607369E0FF2019300059407A07
:10214000FF2119310959897A090208430646E189B4
:102150003046FFF7A1FD002824D0FF201930005998
:10216000017956200155FF20193000594179572037
:102170000155FF2019300059817958200155FF2061
:1021800019300059C17959200155FF2019300059E3
:10219000017A5A2001556682012001E026E034E0F0
:1021A000A07101E00020607330E0FF201930005979
:1021B0008079FF2119310959C97909020843064676
:1021C000E1893046FFF768FD00280ED0FF20193066
:1021D0000059017953200155FF20193000594179E8
:1021E00054200155A6820120E0710FE020780028DC
:1021F0000AD101202070FF201930005900780821F1
:102200000840C008A070E57000E000BF00BFF8BD46
:1022100010604318536011829060D0607047F0B531
:1022200000BF05252D072C4655000D439E00354364
:10223000059E36023543069E360435438600072741
:102240003F02E719BD51F0BD7CB505460C460020A4
:10225000009023460246014601902846FFF7DFFF23
:102260007CBD1CB5044600200090034601221146A7
:1022700001902046FFF7D3FF1CBD10B500BF05231A
:102280001B0719461B15CB185A680123834093433B
:10229000052424020C19A360012383401340052464
:1022A00024020C19E36010BD0448008CC0B203493D
:1022B000898C0907090D084370470000C00F00F022
:1022C000F8B504460D462078042108408608207899
:1022D00008210840C00800906078002801D1012042
:1022E00000E000200746002D02D0184807702CE0BF
:1022F000174801780098FFF75DFD002810D11448B9
:10230000FEF72EFC607800280AD0124800680368A7
:10231000406800215A1C48410E4909680A6048601B
:102320000D48007886420ED00848007800280AD16F
:102330000A4800680368406800215A1C4841074960
:1023400009680A60486004480670F8BDF100002082
:10235000F2000020EC000020F0000020E800002047
:102360000A4800680A49086001210A488164152169
:1023700089014018806808490968884204D20348E6
:102380000068401E024908607047000054000020A9
:1023900058000020009000404095004070B5044671
:1023A0002068C5780026E81E0300FEF7C7FA090674
:1023B00025363E4646463F4046002068011D08221D
:1023C00020467F30FDF70BFF2046833021680A7BD3
:1023D0000271497B4171206801460E310822204676
:1023E0008930FDF7FCFE20680146163104222046A4
:1023F000A930FDF7F4FE21E02068011D08222046E7
:102400009130FDF7ECFE206801460C310422204695
:10241000AD30FDF7E4FE012610E000222146B13187
:102420002046253000F074F808E007E006E0207947
:10243000002801D100F058F800E000BF00BF30468E
:1024400070BDF8B504462068C51D2E7800273300FE
:10245000FEF774FA0945060708091A1B25344500DA
:102460003EE03DE03CE02079002806D01022691CC7
:1024700020465F30FDF7B3FE05E01022691C2046C0
:102480006F30FDF7ACFE2BE02AE02079002805D163
:102490001022691C20461530FDF7A1FE20E02079AE
:1024A00000280AD1204621306A7A0275A97A41753E
:1024B0000822691C1630FDF792FE11E020790028F1
:1024C00006D01022691C20463F30FDF788FE05E04B
:1024D0001022691C20464F30FDF781FE00E000BF4E
:1024E00000BF3846F8BD000010B506480068FFF789
:1024F000B5FB05480078FFF75BFA00200349087038
:1025000010BD00002C000020480000201C0000200E
:1025100070B504460E461546102221460D4801F0BE
:1025200046F8082231460B481930FDF758FE00F0F6
:10253000B5F8284600F0C0F80748FFF78FFB0748BA
:102540000078FFF749FA0120054908700020054985
:10255000486070BDA0010020C80100204800002094
:102560001C00002000110040014800787047000066
:102570001C00002070B504460D461548056015483E
:1025800015490860FFF78CFC144804600068FFF7E9
:1025900065FB00201249086012481349086013487F
:1025A00004600268084601681148FFF79BF811496A
:1025B0001148FFF736FA11490F480838FFF720FA9B
:1025C0000F4908700F491048FEF7AEFC70BD0000BF
:1025D0004C00002020000020280000202C000020BB
:1025E00000820040C801002030000020340000209C
:1025F000A0010020409000400C11004004F0004079
:1026000048000020400000203800002010B504469B
:10261000FFF7D8FA00BF05480069002802D12078EA
:102620000028F8D1FFF79CFE10BD0000001100400B
:1026300070B5044600254020144948600020144924
:10264000C86000BF124800680028FBD00120114973
:10265000886010E0681C05460F4988420BD100F0E5
:10266000BBF90646072E04D100206073A07201203A
:102670002071002500BF0648C068002802D1607B99
:102680000028E7D1FFF76CFE70BD0000001300408A
:102690000011004000100040FFFF04000021044A28
:1026A000116051600020034A1060506070470000C4
:1026B0004000002038000020002802D0054A06CA49
:1026C00001E0054A06CA054B5A61196119460876A8
:1026D000704700003800002040000020A0010020CA
:1026E00010B5FFF76BFAFFF7DBFBFFF7FDFE0120EC
:1026F0000549486005494860FF2005498860002079
:102700000449086010BD00000080004000A00040A7
:10271000001300400082004010B5FFF74FFAFEF7AB
:10272000A3FA0446FFF7B8F9FFF74CFA10BD000012
:1027300078B506460C466946304600F0C1F80546B5
:10274000002D2ED068460078CD2808D16846007844
:10275000154908706946304600F0B2F80546002D6C
:102760001FD011480078CD2803D06846007820702B
:1027700013E068460078AC2804D0BD2805D0CE28E8
:1027800009D105E0AB20207006E0BC20207003E0FA
:10279000CD20207000E000BF00BF684600780249ED
:1027A0000870284678BD0000D9000020F3B50C461B
:1027B00001273E48007800283AD13D48007800289B
:1027C00005D1BC2020700120394908706CE000253B
:1027D000002610E0002D05D136480078BE2801D132
:1027E000012508E0002D06D0002E04D131480078E4
:1027F000EF2800D10126002D01D0002E05D12D4952
:10280000009800F05DF80028E4D1002D01D0002EE2
:1028100001D100270BE00127FF2024490870002088
:1028200025490870AB2020700020214908703BE04A
:1028300022480078002804D11E49009800F040F892
:102840000746002F30D01C480078012804D11948D1
:102850000078401D1549087017480078401C16493B
:10286000087014480078AB2804D0BC2803D0CD28C9
:102870000DD101E000BF00BF0E480078401C0D499B
:102880000870CD20207001200C4908700BE0094829
:102890000078207005480078401E04490870002028
:1028A0000649087000BF00BF3846FCBDD6000020B6
:1028B000D5000020D3000020D7000020D400002045
:1028C00010B503460C461846FEF7E3F800280DD174
:1028D0009868007820709868401C986098685968DB
:1028E000884201D318689860012010BD0020FCE7E1
:1028F00010B5FEF79EF904462146062000F014FBB1
:1029000001202D49886000202C49C860486000BF24
:1029100001202B49C860D2202A49086001204004C8
:10292000294988604010486001202549086000BF9F
:1029300026490968487200BF20484068002804D131
:1029400022480068407A0028F6D1FFF709FD00BF51
:1029500001201B494860C86000041B49886000BF13
:102960001A480068407A002813D000BF1348C06896
:102970000028FBD0FFF7F4FCFFF7CEFE002014493F
:102980000870FEF785F904462146062000F0CCFACF
:1029900010E010488068502807D0FFF7BDFEFFF711
:1029A000BBFE00200A49087004E0FFF7B5FE0020D6
:1029B0000749087010BD00000010004000110040E1
:1029C00000800040408500400083004074000020EB
:1029D00070000020001500407CB5012404E185480A
:1029E0000078032833D006DC00280BD001280FD054
:1029F000022871D118E0042835D005286ED0FF28B0
:102A0000F7D17DE0FEF75EFE04467A480470EAE006
:102A1000794800F051FD0446002C04D07548007838
:102A2000401C74490870DEE0744800F045FD04461F
:102A3000002C0BD06F480078401C6E4908706F481E
:102A40000078442802DD44206C490870CBE06C48D3
:102A500000F032FD0446002C04D066480078401C8B
:102A600064490870BFE064480078062822D16548B0
:102A7000006865490860002505E06249481900F0D2
:102A80001BFD04466D1C022DF7DB5E4800685F49A4
:102A9000884205D15C480068491E884200D000BFCA
:102AA000002C03D053480078401C00E0002051491E
:102AB000087010E0032504E0684600F0FDFC0446C1
:102AC0006D1C4D4800788542F6DB002C02D00620B4
:102AD0004849087000BF86E064E0FFE74C4800F01A
:102AE000EBFC0446002C0AD042480078401C4149C7
:102AF000087042480078002801D1FF20087072E079
:102B0000434800780C2823D004DC00280AD007288A
:102B10003DD104E00D2823D0172838D123E000F060
:102B200069F935E006223B493B480068FDF757FB51
:102B3000384880793949096808703648C0790028D2
:102B400001D0012000E000203549096808701FE02D
:102B50002A480078102802D12E4800F041F917E0E9
:102B600000F082FA14E02B4801786846C1712948C8
:102B70004178684601712748817868464171254847
:102B8000C1786846817101A8FEF798F800BF00BFC0
:102B900000BF0020174908701749087017490870CE
:102BA000002420E013490978891F1A4A881800F088
:102BB00083FC0446002C04D00E480078401C0D49CC
:102BC00008700C480078801F0C490978884202DBA5
:102BD000FF200849087007480078FE2802D100202D
:102BE0000449087000BF00BF002C00D0F7E6084879
:102BF00000787CBDA80000209D0000209E000020E1
:102C00009F000020A4000020A0000020311200003E
:102C10009C0000203402002090000020940000203E
:102C2000980000200178F022114009110278120763
:102C3000120E114301700178CC22114089100278E4
:102C400033231A409200114301700178AA221140E7
:102C50004910027855231A40520011430170704701
:102C60000548806AF021084000090349C96AF0223A
:102C70001140084370470000C00F00F070B50E49C6
:102C8000096849780D4A127888182521FDF71BFB41
:102C9000CCB20A4804702046FDF76AFF002801D034
:102CA000204670BD064841792046FDF70CFBCDB2A9
:102CB00003482038405DF4E7E4000020E0000020F5
:102CC000F4250020F8B506460C46A2781202E378F7
:102CD0001A4311462278120263781A43104600F014
:102CE00060F800903046009900F03EF80546252136
:102CF0002846FDF7E8FACFB23846FDF739FF00283D
:102D000001D03846F8BD04484279104668430114A2
:102D100001482038405CF5E7F42500200246100108
:102D20001018431898B2704770B504462104080E75
:102D300000F007F80502E0B200F003F80543A8B27E
:102D400070BD10B501460022002009E00B4603418A
:102D5000DB07DB0F0724241AA3401343DAB2401C1D
:102D60000828F3D3104610BDF8B505460E46314687
:102D7000284600F016F80746002409E03846FFF719
:102D8000D3FF074631463846FFF7C8FF0746641CA5
:102D9000032CF3D33146384600F003F80746384693
:102DA000F8BD0246104648407047000070B5002448
:102DB000002500BF0BE02046FDF7DAFE002804D016
:102DC0002846691CCDB205490C54601CC4B2252CA0
:102DD000F1DB02482030457170BD0000D425002091
:102DE00010B5044610222146014800F0E0FB10BD5A
:102DF000FA25002010B50248FFF7F2FF10BD0000D1
:102E00000A26002000B5064A7D21C9000548FFF7C3
:102E1000FFF9054A7D2189010448FFF7F9F900BD52
:102E20006006002078020020B425002074060020EF
:102E300001204004014988607047000000B3004051
:102E400001204004054948600021054841600120F7
:102E500004494860886008607047000000B3004083
:102E600040B1004000B0004010B504462348046063
:102E700001202349486023494860234948600020D5
:102E8000224948600420086103208860042020490A
:102E900008600820FDF746FB00201E49486004201A
:102EA000086100208860012040041B494860002020
:102EB00013491522920189184860012010490860C1
:102EC0000920FDF72FFB0020144948600420086109
:102ED000002088600A20FDF725FB28201049886023
:102EE0003C20104915229201891848600B20FDF7FB
:102EF00019FB01200B49086010BD0000680000208C
:102F0000009000400080004000A00040008500408C
:102F100000820040009500400093004000A5004062
:102F200000B5004000B0004070B506460C460B48A6
:102F30000078002811D10120084908702046FDF7CB
:102F4000C7FF0748C0780830C5B22946044800F0DA
:102F5000E5FA00200149087000BF70BD8400002020
:102F6000F001002070B505460C4613480078002893
:102F700021D106211148FDF759FD10484572FDF792
:102F800005FDFEF771FE0D49C8720C73FF200002AB
:102F9000204000124873FDF72BFDFDF7DDFCFDF727
:102FA000FDFC0648C0780830C1B2044800F0B6FA0B
:102FB00000200149087070BD84000020F00100204D
:102FC00010B50948007800280DD101200649087085
:102FD00005210648FDF72AFD0821044800F09EFA65
:102FE00000200149087010BD84000020F00100207D
:102FF00010B504460E480078002817D101200C496E
:10300000087009210B48FDF711FD0A490C722004D4
:10301000000E48722002000E8872200EC8720C2129
:10302000044800F07BFA00200149087010BD000040
:1030300084000020F001002010B509480078002825
:103040000DD101200649087001210648FDF7EEFC6C
:103050000821044800F062FA00200149087010BD00
:1030600084000020F001002010B5094800780028F5
:103070000DD10120064908700648FDF779FC0A21A8
:103080000448401F00F04AFA00200149087010BDB2
:10309000840000208A00002070B504460D462146B9
:1030A0002846FEF76BFD034840684021084301496C
:1030B000486070BD00130040144908600121134AA4
:1030C00012685173114A12689172104A1268517253
:1030D00000210E4A126891710C4A126851710B4A14
:1030E00012681171094A12681173084A1268117244
:1030F000064A12685170054A12681170002203498D
:103100000968FF3101310A77704700007400002020
:103110001FB504460020009001900290039068467D
:10312000FFF75EFE102269460448FDF758F81022AA
:10313000694620461530FDF752F81FBD0A260020CB
:1031400038B5044601200090FFF7CAFAFEF710FDDB
:103150000020FEF7E7FBFFF773FE3AE00120FEF7E1
:10316000F5FBFFF7D9FA6846FFF750FAFDF761FD66
:10317000054629460620FFF7D7FEFFF7CDFA684639
:10318000FFF744FAFDF755FD054629460620FFF7EF
:10319000CBFEFFF7C1FA6846FFF738FAFDF749FDA5
:1031A000054629460620FFF7BFFEFFF715FC2070F5
:1031B0002078FF280DD0207807280AD020780D2805
:1031C00007D020780C2804D02078172801D00020C0
:1031D0000090684600780028C0D1FFF729FE38BD6E
:1031E00070B500260025FDF729FE012803D01348FD
:1031F00000F0FAF821E000F04FF91AE02846691CC7
:10320000CDB2C117890F091889108900411A8900A8
:103210000B4A54580949204600F07EF8002801D096
:10322000012606E00749204600F076F8002800D085
:103230000126002EE2D000F037F970BDB00000206A
:10324000D0350000BC00002000B50548054A8118B3
:103250000548FFF7ABFA002801D10449087000BD0A
:10326000002000401C050000B4250020D0000020F4
:10327000FEB505460E4614460020029025602671D4
:10328000206800788707BF0F20684078C006C00E0E
:1032900001902068807900022168497908430090F4
:1032A0000198002816DD012F0CD0022F02D0032F29
:1032B0000ED108E00098062803D12046FFF7C1F898
:1032C000029006E005E02046FFF768F8029000E073
:1032D00000BF00BF31462846FEF7F2FF032F04D19E
:1032E000E878052801D1FFF7D9F90298FEBD10B59D
:1032F0000246D078884201D1002010BDFF2019304D
:10330000805800780424204083089078984201D0A7
:103310000120F2E70020F0E738B504460D46012011
:103320002349486088600846152189014018846057
:1033300001201F49086000F0B7F8284600F054F853
:103340001BE0FFF791FE00BF0120000419498860CF
:1033500001201949C8601948194908600120164917
:10336000086000BF174800680028FBD000201549FE
:10337000086001201049486000BF13484068A0421F
:10338000DFD300F089F8684600F096F8002801D0F5
:10339000012038BD00BF684600F08EF80028FAD141
:1033A0000A4948600860886000F012F80020F0E7E1
:1033B00000B0004000A3004000A00040A086010033
:1033C00040A5004040A1004000B50040600600203C
:1033D00000B5034A7D21C9000248FEF719FF00BD70
:1033E000600600207802002010B50446FFF70AFDB1
:1033F000234821460EC90EC06078FEF773FA207884
:10340000FEF770FA6078FEF7B9FA2078FEF7B6FAA0
:10341000E0780021FEF75AFAA0780021FEF756FA6C
:103420002078184988606078C860A0780861E078E2
:103430004861002014498860C8610420114908606F
:10344000A06848622079002801D0012000E0002017
:103450000C494031C86204200C4948608020486013
:1034600001200B498860086003210220FDF764F801
:10347000022001218140074A116000BF10BD0000F9
:10348000C825002000250040002100400023004006
:103490000020004000E100E0042002498860802014
:1034A0008860704700230040042002494860802063
:1034B000486070470023004070B504460A48FDF795
:1034C000F1FA054621460848FFF732F90646002D75
:1034D00007D00548FDF7E6FA002802D10420034989
:1034E0004860304670BD00006006002000230040A8
:1034F00070B50446A08882B206482168FDF746FCF4
:10350000054605480078002801D100F011F828464A
:1035100070BD0000B4250020D00000207CB504461A
:103520000D46009401956846FFF7E2FF7CBD000060
:1035300010B50548FDF7ADFA002804D10120034974
:103540000870FFF781FE10BDB4250020D0000020D8
:1035500010B50446A079002808D0E089618A884225
:1035600004D12046FDF74CFB0020A07160790028B3
:103570000DD0E089218A884209D121463631204682
:103580001630FDF7ECFB0020607101202072E0791D
:1035900000280BD0E089A18A884207D12146363124
:1035A00020461630FDF7E6FB0020E07110BD10B597
:1035B0000346002004E0141A641E0C5D1C54401CD9
:1035C0009042F8D310BD5555558E89BED6000000E7
:1035D00020030000A00F0000401F0000E02E0000AC
:1035E0001516170004360000000000209C010000A2
:1035F000C80400008C3600009C010020FC3500004F
:103600000401000011128042400210FF5918000905
:1036100029EFCDAB8967452301593809161C794933
:10362000A9281DBEEF060219D40E58040912943DB4
:1036300008090A0B4414705F077C0102030C9119FE
:103640001239150527252627031301031B408190F6
:103650004A1094290C5A040C1A440C5A100C1B28BA
:1036600011085AF0B8990C1A040C9A040C5A44DC4C
:103670001A0C0C5A480C9B40B160190C6960290C5B
:0C368000AA0C24590C111324F4000000C3
:04000005000000C136
:00000001FF
